{"abi":[{"type":"constructor","inputs":[],"stateMutability":"nonpayable"},{"type":"function","name":"Buy","inputs":[{"name":"tokenId","type":"uint256","internalType":"uint256"}],"outputs":[{"name":"Success","type":"bool","internalType":"bool"}],"stateMutability":"payable"},{"type":"function","name":"IsApproved","inputs":[{"name":"target","type":"address","internalType":"address"},{"name":"tokenId","type":"uint256","internalType":"uint256"}],"outputs":[{"name":"","type":"bool","internalType":"bool"}],"stateMutability":"view"},{"type":"function","name":"List","inputs":[{"name":"tokenId","type":"uint256","internalType":"uint256"},{"name":"price","type":"uint256","internalType":"uint256"}],"outputs":[{"name":"Success","type":"bool","internalType":"bool"}],"stateMutability":"nonpayable"},{"type":"function","name":"Revoke","inputs":[{"name":"tokenId","type":"uint256","internalType":"uint256"}],"outputs":[{"name":"Success","type":"bool","internalType":"bool"}],"stateMutability":"nonpayable"},{"type":"function","name":"TransferBNFT","inputs":[{"name":"from","type":"address","internalType":"address"},{"name":"to","type":"address","internalType":"address"},{"name":"tokenId","type":"uint256","internalType":"uint256"}],"outputs":[],"stateMutability":"nonpayable"},{"type":"function","name":"UpdatePrice","inputs":[{"name":"tokenId","type":"uint256","internalType":"uint256"},{"name":"newPrice","type":"uint256","internalType":"uint256"}],"outputs":[{"name":"Success","type":"bool","internalType":"bool"}],"stateMutability":"nonpayable"},{"type":"function","name":"burn","inputs":[{"name":"tokenId","type":"uint256","internalType":"uint256"}],"outputs":[],"stateMutability":"nonpayable"},{"type":"function","name":"listings","inputs":[{"name":"","type":"uint256","internalType":"uint256"}],"outputs":[{"name":"seller","type":"address","internalType":"address"},{"name":"price","type":"uint256","internalType":"uint256"}],"stateMutability":"view"},{"type":"function","name":"mint","inputs":[{"name":"to","type":"address","internalType":"address"},{"name":"tokenId","type":"uint256","internalType":"uint256"}],"outputs":[],"stateMutability":"nonpayable"},{"type":"function","name":"name","inputs":[],"outputs":[{"name":"","type":"string","internalType":"string"}],"stateMutability":"view"},{"type":"function","name":"ownerOf","inputs":[{"name":"tokenId","type":"uint256","internalType":"uint256"}],"outputs":[{"name":"","type":"address","internalType":"address"}],"stateMutability":"view"},{"type":"function","name":"symbol","inputs":[],"outputs":[{"name":"","type":"string","internalType":"string"}],"stateMutability":"view"}],"bytecode":{"object":"0x60806040526103e8600555348015610015575f5ffd5b5060408051808201909152600881526710985cda58d3919560c21b60208201525f906100419082610108565b506040805180820190915260048152631093919560e21b602082015260019061006a9082610108565b506101c2565b634e487b7160e01b5f52604160045260245ffd5b600181811c9082168061009857607f821691505b6020821081036100b657634e487b7160e01b5f52602260045260245ffd5b50919050565b601f82111561010357805f5260205f20601f840160051c810160208510156100e15750805b601f840160051c820191505b81811015610100575f81556001016100ed565b50505b505050565b81516001600160401b0381111561012157610121610070565b6101358161012f8454610084565b846100bc565b6020601f821160018114610167575f83156101505750848201515b5f19600385901b1c1916600184901b178455610100565b5f84815260208120601f198516915b828110156101965787850151825560209485019460019092019101610176565b50848210156101b357868401515f19600387901b60f8161c191681555b50505050600190811b01905550565b610ccc806101cf5f395ff3fe6080604052600436106100a5575f3560e01c806395d89b411161006257806395d89b411461018c578063bd3546ea146101a0578063c38e7832146101bf578063cd2d66e0146101de578063db43aa42146101fd578063de74e57b1461021c575f5ffd5b806306fdde03146100a95780633e328218146100d357806340c10f19146100f657806342966c68146101175780636352211e146101365780638b49109c1461016d575b5f5ffd5b3480156100b4575f5ffd5b506100bd610279565b6040516100ca9190610b17565b60405180910390f35b6100e66100e1366004610b4c565b610304565b60405190151581526020016100ca565b348015610101575f5ffd5b50610115610110366004610b7e565b61050b565b005b348015610122575f5ffd5b50610115610131366004610b4c565b610602565b348015610141575f5ffd5b50610155610150366004610b4c565b61069f565b6040516001600160a01b0390911681526020016100ca565b348015610178575f5ffd5b506100e6610187366004610ba6565b610733565b348015610197575f5ffd5b506100bd6107d5565b3480156101ab575f5ffd5b506100e66101ba366004610b7e565b6107e2565b3480156101ca575f5ffd5b506100e66101d9366004610ba6565b610825565b3480156101e9575f5ffd5b506101156101f8366004610bc6565b6108d9565b348015610208575f5ffd5b506100e6610217366004610b4c565b6109f8565b348015610227575f5ffd5b5061025a610236366004610b4c565b60046020525f9081526040902080546001909101546001600160a01b039091169082565b604080516001600160a01b0390931683526020830191909152016100ca565b5f805461028590610c00565b80601f01602080910402602001604051908101604052809291908181526020018280546102b190610c00565b80156102fc5780601f106102d3576101008083540402835291602001916102fc565b820191905f5260205f20905b8154815290600101906020018083116102df57829003601f168201915b505050505081565b6005545f908211156103315760405162461bcd60e51b815260040161032890610c38565b60405180910390fd5b5f82815260046020908152604091829020825180840190935280546001600160a01b0316808452600190910154918301919091526103a35760405162461bcd60e51b815260206004820152600f60248201526e10939195081b9bdd081b1a5cdd1959608a1b6044820152606401610328565b806020015134146103e85760405162461bcd60e51b815260206004820152600f60248201526e0e0e4d2c6ca40dcdee840dac2e8c6d608b1b6044820152606401610328565b80516040515f916001600160a01b03169034908381818185875af1925050503d805f8114610431576040519150601f19603f3d011682016040523d82523d5f602084013e610436565b606091505b505090508061047d5760405162461bcd60e51b8152602060048201526013602482015272115512081d1c985b9cd9995c8819985a5b1959606a1b6044820152606401610328565b81516040516306696b3760e51b81526001600160a01b03909116600482015233602482015260448101859052309063cd2d66e0906064015f604051808303815f87803b1580156104cb575f5ffd5b505af11580156104dd573d5f5f3e3d5ffd5b5050505f9485525050600460205250506040812080546001600160a01b031916815560019081019190915590565b60055481111561052d5760405162461bcd60e51b815260040161032890610c38565b6001600160a01b03821661057a5760405162461bcd60e51b81526020600482015260146024820152736d696e7420746f207a65726f206164647265737360601b6044820152606401610328565b5f818152600260205260409020546001600160a01b0316156105d55760405162461bcd60e51b81526020600482015260146024820152731d1bdad95b88185b1c9958591e481b5a5b9d195960621b6044820152606401610328565b5f90815260026020526040902080546001600160a01b0319166001600160a01b0392909216919091179055565b6005548111156106245760405162461bcd60e51b815260040161032890610c38565b61062d8161069f565b6001600160a01b0316336001600160a01b0316146106825760405162461bcd60e51b81526020600482015260126024820152713737ba1037bbb732b91037b3103a37b5b2b760711b6044820152606401610328565b5f90815260026020526040902080546001600160a01b0319169055565b5f6005548211156106c25760405162461bcd60e51b815260040161032890610c38565b5f828152600260205260409020546001600160a01b03166107185760405162461bcd60e51b815260206004820152601060248201526f1d1bdad95b881b9bdd081b5a5b9d195960821b6044820152606401610328565b505f908152600260205260409020546001600160a01b031690565b6005545f908311156107575760405162461bcd60e51b815260040161032890610c38565b6107608361069f565b6001600160a01b0316336001600160a01b0316146107905760405162461bcd60e51b815260040161032890610c66565b5060408051808201825233815260208082019384525f948552600490529220915182546001600160a01b0319166001600160a01b039091161782555160019182015590565b6001805461028590610c00565b5f6005548211156108055760405162461bcd60e51b815260040161032890610c38565b505f908152600360205260409020546001600160a01b0390811691161490565b6005545f908311156108495760405162461bcd60e51b815260040161032890610c38565b6108528361069f565b6001600160a01b0316336001600160a01b0316146108825760405162461bcd60e51b815260040161032890610c66565b60408051808201825233815260208082018581525f8781526004909252929020905181546001600160a01b0319166001600160a01b0390911617815590516001909101556108d03084610a8f565b50600192915050565b6005548111156108fb5760405162461bcd60e51b815260040161032890610c38565b826001600160a01b031661090e8261069f565b6001600160a01b0316146109345760405162461bcd60e51b815260040161032890610c66565b61093d8161069f565b6001600160a01b0316336001600160a01b03161480610961575061096133826107e2565b6109bb5760405162461bcd60e51b815260206004820152602560248201527f6d73672e73656e646572206e6f74206f776e657220616e64206e6f74206170706044820152641c9bdd995960da1b6064820152608401610328565b5f90815260026020908152604080832080546001600160a01b039095166001600160a01b0319958616179055600390915290208054909116905550565b6005545f90821115610a1c5760405162461bcd60e51b815260040161032890610c38565b610a258261069f565b6001600160a01b0316336001600160a01b031614610a555760405162461bcd60e51b815260040161032890610c66565b505f90815260046020908152604080832080546001600160a01b031990811682556001918201859055600390935292208054909116905590565b600554811115610ab15760405162461bcd60e51b815260040161032890610c38565b610aba8161069f565b6001600160a01b0316336001600160a01b031614610aea5760405162461bcd60e51b815260040161032890610c66565b5f90815260036020526040902080546001600160a01b0319166001600160a01b0392909216919091179055565b602081525f82518060208401528060208501604085015e5f604082850101526040601f19601f83011684010191505092915050565b5f60208284031215610b5c575f5ffd5b5035919050565b80356001600160a01b0381168114610b79575f5ffd5b919050565b5f5f60408385031215610b8f575f5ffd5b610b9883610b63565b946020939093013593505050565b5f5f60408385031215610bb7575f5ffd5b50508035926020909101359150565b5f5f5f60608486031215610bd8575f5ffd5b610be184610b63565b9250610bef60208501610b63565b929592945050506040919091013590565b600181811c90821680610c1457607f821691505b602082108103610c3257634e487b7160e01b5f52602260045260245ffd5b50919050565b602080825260149082015273546f6b656e4964206f7574206f662072616e676560601b604082015260600190565b6020808252601690820152753737ba103a34329037bbb732b91037b3103a37b5b2b760511b60408201526060019056fea264697066735822122063886fd55f0e46f95b8d039ccd4ad3a77d90ede96893a66c31bea950c15c396464736f6c634300081c0033","linkReferences":{}},"methodIdentifiers":{"Buy(uint256)":"3e328218","IsApproved(address,uint256)":"bd3546ea","List(uint256,uint256)":"c38e7832","Revoke(uint256)":"db43aa42","TransferBNFT(address,address,uint256)":"cd2d66e0","UpdatePrice(uint256,uint256)":"8b49109c","burn(uint256)":"42966c68","listings(uint256)":"de74e57b","mint(address,uint256)":"40c10f19","name()":"06fdde03","ownerOf(uint256)":"6352211e","symbol()":"95d89b41"},"id":0}